{
  "contractName": "MyDefiContract",
  "abi": [
    {
      "inputs": [
        {
          "internalType": "address",
          "name": "_uniswap",
          "type": "address"
        }
      ],
      "stateMutability": "nonpayable",
      "type": "constructor"
    },
    {
      "anonymous": false,
      "inputs": [
        {
          "indexed": true,
          "internalType": "address",
          "name": "to",
          "type": "address"
        },
        {
          "indexed": false,
          "internalType": "uint256",
          "name": "value",
          "type": "uint256"
        }
      ],
      "name": "WithdrawETH",
      "type": "event"
    },
    {
      "inputs": [
        {
          "internalType": "address",
          "name": "",
          "type": "address"
        }
      ],
      "name": "balanceOf",
      "outputs": [
        {
          "internalType": "uint256",
          "name": "",
          "type": "uint256"
        }
      ],
      "stateMutability": "view",
      "type": "function"
    },
    {
      "inputs": [
        {
          "internalType": "address",
          "name": "token",
          "type": "address"
        },
        {
          "internalType": "uint256",
          "name": "amountIn",
          "type": "uint256"
        },
        {
          "internalType": "uint256",
          "name": "amountOutMin",
          "type": "uint256"
        },
        {
          "internalType": "uint256",
          "name": "deadline",
          "type": "uint256"
        }
      ],
      "name": "swapTokensForExactTokens",
      "outputs": [],
      "stateMutability": "nonpayable",
      "type": "function"
    },
    {
      "inputs": [],
      "name": "withdrawETH",
      "outputs": [],
      "stateMutability": "payable",
      "type": "function"
    }
  ],
  "bytecode": "0x608060405234801561001057600080fd5b5060405161099138038061099183398101604081905261002f91610054565b60008054600160a060020a031916600160a060020a0392909216919091179055610084565b60006020828403121561006657600080fd5b8151600160a060020a038116811461007d57600080fd5b9392505050565b6108fe806100936000396000f3fe608060405260043610610050577c0100000000000000000000000000000000000000000000000000000000600035046370a08231811461005557806377dcc3cb14610094578063e086e5ec146100b6575b600080fd5b34801561006157600080fd5b50610082610070366004610621565b60016020526000908152604090205481565b60405190815260200160405180910390f35b3480156100a057600080fd5b506100b46100af366004610662565b6100be565b005b6100b461041b565b6040517f23b872dd00000000000000000000000000000000000000000000000000000000815233600482015230602482015260448101849052600160a060020a038516906323b872dd90606401602060405180830381600087803b15801561012557600080fd5b505af1158015610139573d6000803e3d6000fd5b505050506040513d601f19601f8201168201806040525081019061015d9190610761565b50604080516002808252606082018352600092602083019080368337019050509050848160008151811061019357610193610852565b6020026020010190600160a060020a03169081600160a060020a03168152505060008054906101000a9004600160a060020a0316600160a060020a031663ad5c46486040518163ffffffff167c010000000000000000000000000000000000000000000000000000000002815260040160206040518083038186803b15801561021b57600080fd5b505afa15801561022f573d6000803e3d6000fd5b505050506040513d601f19601f820116820180604052508101906102539190610645565b8160018151811061026657610266610852565b600160a060020a0392831660209182029290920101526000546040517f095ea7b30000000000000000000000000000000000000000000000000000000081529082166004820152602481018690529086169063095ea7b390604401602060405180830381600087803b1580156102db57600080fd5b505af11580156102ef573d6000803e3d6000fd5b505050506040513d601f19601f820116820180604052508101906103139190610761565b50600080546040517f4a25d94a000000000000000000000000000000000000000000000000000000008152600160a060020a0390911690634a25d94a906103669088908890879030908a90600401610783565b600060405180830381600087803b15801561038057600080fd5b505af1158015610394573d6000803e3d6000fd5b505050506040513d6000823e601f3d908101601f191682016040526103bc919081019061069d565b905061040381600183516103d0919061080c565b815181106103e0576103e0610852565b60209081029190910181015133600090815260019092526040909120549061052b565b33600090815260016020526040902055505050505050565b33600090815260016020526040902054610496576040517f08c379a000000000000000000000000000000000000000000000000000000000815260206004820152601460248201527f496e73756666696369656e742062616c616e636500000000000000000000000060448201526064015b60405180910390fd5b336000908152600160205260409020546104b081806105a9565b336000818152600160205260408082209390935591519091829184156108fc0291859190818181858888f193505050501580156104f1573d6000803e3d6000fd5b5060405182815233907f566e45b1c8057e725bf62796a7f1d37ae294393cab069725a09daddd1af98b799060200160405180910390a25050565b60008261053883826107f4565b91508110156105a3576040517f08c379a000000000000000000000000000000000000000000000000000000000815260206004820152601460248201527f64732d6d6174682d6164642d6f766572666c6f77000000000000000000000000604482015260640161048d565b92915050565b6000826105b6838261080c565b91508111156105a3576040517f08c379a000000000000000000000000000000000000000000000000000000000815260206004820152601560248201527f64732d6d6174682d7375622d756e646572666c6f770000000000000000000000604482015260640161048d565b60006020828403121561063357600080fd5b813561063e816108b0565b9392505050565b60006020828403121561065757600080fd5b815161063e816108b0565b6000806000806080858703121561067857600080fd5b8435610683816108b0565b966020860135965060408601359560600135945092505050565b600060208083850312156106b057600080fd5b825167ffffffffffffffff808211156106c857600080fd5b818501915085601f8301126106dc57600080fd5b8151818111156106ee576106ee610881565b838102604051601f19603f8301168101818110858211171561071257610712610881565b604052828152858101935084860182860187018a101561073157600080fd5b600095505b83861015610754578051855260019590950194938601938601610736565b5098975050505050505050565b60006020828403121561077357600080fd5b8151801515811461063e57600080fd5b600060a082018783526020878185015260a0604085015281875180845260c086019150828901935060005b818110156107d3578451600160a060020a0316835293830193918301916001016107ae565b5050600160a060020a03969096166060850152505050608001529392505050565b6000821982111561080757610807610823565b500190565b60008282101561081e5761081e610823565b500390565b7f4e487b7100000000000000000000000000000000000000000000000000000000600052601160045260246000fd5b7f4e487b7100000000000000000000000000000000000000000000000000000000600052603260045260246000fd5b7f4e487b7100000000000000000000000000000000000000000000000000000000600052604160045260246000fd5b600160a060020a03811681146108c557600080fd5b5056fea26469706673582212200612e538e95459152050256db5236d659436c1d5ca33bb3fcac460afc082253e64736f6c63430008070033",
  "immutableReferences": {},
  "source": "// SPDX-License-Identifier: MIT\r\npragma solidity >=0.4.22 <0.9.0;\r\n\r\nimport \"./libraries/Safemath.sol\";\r\nimport \"@openzeppelin/contracts/token/ERC20/IERC20.sol\";\r\n\r\ninterface IUniswap {\r\n    function WETH() external pure returns (address);\r\n\r\n    function swapTokensForExactETH(uint amountOut, uint amountInMax, address[] calldata path, address to, uint deadline)\r\n        external\r\n        returns (uint[] memory amounts);\r\n    \r\n    function getAmountsOut(uint amountIn, address[] calldata path) external view returns (uint[] memory amounts);\r\n    function getAmountOut(uint amountIn, uint reserveIn, uint reserveOut) external pure returns (uint amountOut);\r\n}\r\n\r\ncontract MyDefiContract {\r\n    using SafeMath for uint;\r\n    \r\n    IUniswap uniswap;\r\n    mapping(address => uint) public balanceOf;\r\n\r\n    event WithdrawETH(address indexed to, uint value);\r\n    \r\n    constructor(address _uniswap) {\r\n        uniswap = IUniswap(_uniswap);\r\n    }\r\n\r\n    function swapTokensForExactTokens(\r\n        address token,\r\n        uint amountIn,\r\n        uint amountOutMin,\r\n        uint deadline\r\n    ) external {\r\n        IERC20(token).transferFrom(msg.sender, address(this), amountIn);\r\n        address[] memory path = new address[](2);\r\n        path[0] = token;\r\n        path[1] = uniswap.WETH();\r\n        IERC20(token).approve(address(uniswap), amountIn);\r\n        uint[] memory amounts = uniswap.swapTokensForExactETH(\r\n            amountIn, \r\n            amountOutMin,\r\n            path, \r\n            address(this), \r\n            deadline\r\n        );\r\n        balanceOf[msg.sender] = balanceOf[msg.sender].add(amounts[amounts.length - 1]);\r\n    }\r\n\r\n    function withdrawETH() payable external {\r\n        require(balanceOf[msg.sender] > 0, \"Insufficient balance\");\r\n        uint amount = balanceOf[msg.sender];\r\n        balanceOf[msg.sender] = balanceOf[msg.sender].sub(amount);\r\n\r\n        address payable to = payable(msg.sender);\r\n        to.transfer(amount);\r\n        emit WithdrawETH(msg.sender, amount);\r\n    }\r\n}",
  "sourcePath": "C:\\Users\\Admin\\workspace\\blockchain\\uniswap-02\\contracts\\MyDefiContract.sol",
  "compiler": {
    "name": "solc",
    "version": "0.8.7+commit.e28d00a7.Emscripten.clang"
  },
  "schemaVersion": "3.4.3",
  "updatedAt": "2021-08-15T11:06:56.580Z",
  "devdoc": {
    "kind": "dev",
    "methods": {},
    "version": 1
  },
  "userdoc": {
    "kind": "user",
    "methods": {},
    "version": 1
  }
}